:10006600EFD3940540037F01221204E9FED39403E3
:1000760040037F0222EF7041EE700B9000011205E3
:1000860002F4529352941204E9B4010B9000011247
:1000960005024293F452941204E9FEB4020A900057
:1000A6000112050242934294EEB4030D9000011230
:1000B6000502FEF45293EE4294EF6401704312047B
:1000C600E9FE700B900001120502F452915292EE75
:1000D600B4010B9000011205024291F452921204EF
:1000E600E9B4020A900001120502429142921204FA
:1000F600E9B4030D900001120502FEF45291EE429E
:1001060092EF640270431204E9FE700B9000011234
:100116000502F452955296EEB4010B9000011205B9
:10012600024295F452961204E9B4020A90000112B2
:100136000502429542961204E9B4030D900001129D
:100146000502FEF45295EE4296EF640370431204E4
:10015600E9FE700B900001120502F452B152B2EEA4
:10016600B4010B90000112050242B1F452B212041E
:10017600E9B4020A90000112050242B142B2120429
:10018600E9B4030D900001120502FEF452B1EE42ED
:10019600B2EF640470431204E9FE700B9000011282
:1001A6000502F452B352B4EEB4010B9000011205ED
:1001B6000242B3F452B41204E9B4020A90000112E6
:1001C600050242B342B41204E9B4030D90000112D1
:1001D6000502FEF452B3EE42B4EF64057043120416
:1001E600E9FF700B900001120502F452C952CAEFE2
:1001F600B4010B90000112050242C9F452CA12045E
:10020600E9B4020A90000112050242C942CA120468
:10021600E9B4030D900001120502FFF452C9EF4242
:04022600CA7F002269
:0F056700090A64646464646464646402080000E4
:10003E007514FF7513037B007A0079137F0102009C
:01004E00664B
:10001E00E4F513F5147515017516017517017518AC
:10002E00FF7519EE751A01FB7A007913FF02022A89
:10004F0012003E12001ED2AF750C96750FC880FEBF
:03000B000203C528
:1003C500C0E0C0D00509E50970020508B4D00BE509
:1003D50008B40706750800750900E5096432450883
:1003E50070037590FFC3E5099432E50894004063F6
:1003F500D3E50994FAE50894005058E50AB50906CD
:10040500E4B50802B290E50BB50906E4B50802B2F9
:1004150091E50CB50906E4B50802B292E50DB509FA
:1004250006E4B50802B293E50EB50906E4B508027F
:10043500B294E50FB50906E4B50802B295E510B525
:100445000906E4B50802B296E511B50906E4B50852
:0804550002B297D0D0D0E032D2
:03001B00020003DD
:03000300B2A63270
:0300630002000692
:03000600B2903283
:10022A00AD07EDD3940240037F0122ED6003020281
:10023A00BEC28C900002120502B40104D2A9800247
:10024A00C2A9900001120502B40104D2B98002C207
:10025A00B91204E9FED3940340037F0222E58954CC
:10026A00FC4EF589900003120502FFB40103538E78
:10027A007FEF7003438E80EFB40205438904800345
:10028A005389FB900004120502B40105438F0180D3
:10029A0003538FFE90000512052FE5F0F58C9000B0
:1002AA000512052FF58A900007120502B40102D241
:1002BA008C7F0022ED64016003020349C28E900024
:1002CA0002120502B40104D2AB8002C2AB90000153
:1002DA00120502B40104D2BB8002C2BB1204E9FEB9
:1002EA00C3940340037F0222E58954CF4EF58990D7
:1002FA000003120502FFB40103538EBFEF700343DC
:10030A008E40EFB4020543894080035389BF9000B1
:10031A0004120502B40105438F028003538FFD9036
:10032A00000512052FE5F0F58D90000512052FF551
:10033A008B900007120502B40102D28E7F0022EDD3
:10034A0064027074538EEF900002120502B4010524
:10035A0043AF04800353AFFB900003120502FED3A0
:10036A00940240037F0222EEB40103538EFB9000F5
:10037A00031205027003438E04900003120502B4AF
:10038A000205438E088003538EF79000041205027B
:10039A00B40105438F048003538FFB9000051205B7
:1003AA002FFDACF0ECF5D68DD7900007120502B4FC
:0B03BA000103438E107F00227F02220F
:0300000002045D9A
:0C045D00787FE4F6D8FD75811A0204A433
:1004E900BB010689828A83E0225002E722BBFE0211
:0904F900E32289828A83E4932244
:10050200BB010CE58229F582E5833AF583E02250AE
:1005120006E92582F8E622BBFE06E92582F8E222F8
:0D052200E58229F582E5833AF583E4932212
:10052F00BB0110E58229F582E5833AF583E0F5F00A
:10053F00A3E0225009E92582F886F008E622BBFEE7
:10054F000AE92582F8E2F5F008E222E5832AF5832D
:08055F00E993F5F0A3E99322F2
:1004690002004FE493A3F8E493A34003F68001F25A
:1004790008DFF48029E493A3F85407240CC8C33394
:10048900C4540F4420C8834004F456800146F6DF63
:10049900E4800B0102040810204080900567E47E87
:1004A900019360BCA3FF543F30E509541FFEE49358
:1004B900A360010ECF54C025E060A840B8E493A31F
:1004C900FAE493A3F8E493A3C8C582C8CAC583CA4A
:1004D900F0A3C8C582C8CAC583CADFE9DEE780BE02
:010576000084
:00000001FF
